{
  "contractName": "CrowdFunding",
  "abi": [
    {
      "inputs": [],
      "stateMutability": "nonpayable",
      "type": "constructor"
    },
    {
      "inputs": [
        {
          "internalType": "uint256",
          "name": "",
          "type": "uint256"
        }
      ],
      "name": "projects",
      "outputs": [
        {
          "internalType": "address",
          "name": "ProjectOwner",
          "type": "address"
        },
        {
          "internalType": "string",
          "name": "projectName",
          "type": "string"
        },
        {
          "internalType": "uint256",
          "name": "totalRaised",
          "type": "uint256"
        },
        {
          "internalType": "uint256",
          "name": "currentBalance",
          "type": "uint256"
        },
        {
          "internalType": "uint256",
          "name": "deadline",
          "type": "uint256"
        },
        {
          "internalType": "enum CrowdFunding.Status",
          "name": "status",
          "type": "uint8"
        }
      ],
      "stateMutability": "view",
      "type": "function",
      "constant": true
    },
    {
      "inputs": [
        {
          "internalType": "string",
          "name": "name",
          "type": "string"
        },
        {
          "internalType": "uint256",
          "name": "deadline",
          "type": "uint256"
        }
      ],
      "name": "startProject",
      "outputs": [],
      "stateMutability": "payable",
      "type": "function",
      "payable": true
    },
    {
      "inputs": [],
      "name": "getAllProjects",
      "outputs": [
        {
          "components": [
            {
              "internalType": "address",
              "name": "ProjectOwner",
              "type": "address"
            },
            {
              "internalType": "string",
              "name": "projectName",
              "type": "string"
            },
            {
              "internalType": "uint256",
              "name": "totalRaised",
              "type": "uint256"
            },
            {
              "internalType": "uint256",
              "name": "currentBalance",
              "type": "uint256"
            },
            {
              "internalType": "uint256",
              "name": "deadline",
              "type": "uint256"
            },
            {
              "internalType": "enum CrowdFunding.Status",
              "name": "status",
              "type": "uint8"
            }
          ],
          "internalType": "struct CrowdFunding.Project[]",
          "name": "",
          "type": "tuple[]"
        }
      ],
      "stateMutability": "view",
      "type": "function",
      "constant": true
    },
    {
      "inputs": [],
      "name": "getNumProjects",
      "outputs": [
        {
          "internalType": "uint256",
          "name": "numProjects",
          "type": "uint256"
        }
      ],
      "stateMutability": "view",
      "type": "function",
      "constant": true
    },
    {
      "inputs": [
        {
          "internalType": "uint256",
          "name": "ProjectID",
          "type": "uint256"
        }
      ],
      "name": "getProject",
      "outputs": [
        {
          "components": [
            {
              "internalType": "address",
              "name": "ProjectOwner",
              "type": "address"
            },
            {
              "internalType": "string",
              "name": "projectName",
              "type": "string"
            },
            {
              "internalType": "uint256",
              "name": "totalRaised",
              "type": "uint256"
            },
            {
              "internalType": "uint256",
              "name": "currentBalance",
              "type": "uint256"
            },
            {
              "internalType": "uint256",
              "name": "deadline",
              "type": "uint256"
            },
            {
              "internalType": "enum CrowdFunding.Status",
              "name": "status",
              "type": "uint8"
            }
          ],
          "internalType": "struct CrowdFunding.Project",
          "name": "",
          "type": "tuple"
        }
      ],
      "stateMutability": "view",
      "type": "function",
      "constant": true
    }
  ],
  "bytecode": "0x608060405234801561001057600080fd5b506000600181905550610f75806100286000396000f3fe60806040526004361061004a5760003560e01c8063107046bd1461004f57806316ff5b871461009157806342745e23146100bc57806380d03829146100d8578063f0f3f2c814610103575b600080fd5b34801561005b57600080fd5b506100766004803603810190610071919061089e565b610140565b60405161008896959493929190610b32565b60405180910390f35b34801561009d57600080fd5b506100a6610241565b6040516100b39190610bde565b60405180910390f35b6100d660048036038101906100d19190610842565b610246565b005b3480156100e457600080fd5b506100ed61039f565b6040516100fa9190610b9a565b60405180910390f35b34801561010f57600080fd5b5061012a6004803603810190610125919061089e565b61053f565b6040516101379190610bbc565b60405180910390f35b6000818154811061015057600080fd5b90600052602060002090600602016000915090508060000160009054906101000a900473ffffffffffffffffffffffffffffffffffffffff169080600101805461019990610d58565b80601f01602080910402602001604051908101604052809291908181526020018280546101c590610d58565b80156102125780601f106101e757610100808354040283529160200191610212565b820191906000526020600020905b8154815290600101906020018083116101f557829003601f168201915b5050505050908060020154908060030154908060040154908060050160009054906101000a900460ff16905086565b600090565b60006040518060c001604052803373ffffffffffffffffffffffffffffffffffffffff16815260200184815260200160008152602001600081526020018381526020016000600281111561029d5761029c610e33565b5b8152509050600081908060018154018082558091505060019003906000526020600020906006020160009091909190915060008201518160000160006101000a81548173ffffffffffffffffffffffffffffffffffffffff021916908373ffffffffffffffffffffffffffffffffffffffff16021790555060208201518160010190805190602001906103319291906106bc565b5060408201518160020155606082015181600301556080820151816004015560a08201518160050160006101000a81548160ff0219169083600281111561037b5761037a610e33565b5b021790555050506001600081548092919061039590610dbb565b9190505550505050565b60606000805480602002602001604051908101604052809291908181526020016000905b8282101561053657838290600052602060002090600602016040518060c00160405290816000820160009054906101000a900473ffffffffffffffffffffffffffffffffffffffff1673ffffffffffffffffffffffffffffffffffffffff1673ffffffffffffffffffffffffffffffffffffffff16815260200160018201805461044c90610d58565b80601f016020809104026020016040519081016040528092919081815260200182805461047890610d58565b80156104c55780601f1061049a576101008083540402835291602001916104c5565b820191906000526020600020905b8154815290600101906020018083116104a857829003601f168201915b505050505081526020016002820154815260200160038201548152602001600482015481526020016005820160009054906101000a900460ff16600281111561051157610510610e33565b5b600281111561052357610522610e33565b5b81525050815260200190600101906103c3565b50505050905090565b610547610742565b6000828154811061055b5761055a610e91565b5b90600052602060002090600602016040518060c00160405290816000820160009054906101000a900473ffffffffffffffffffffffffffffffffffffffff1673ffffffffffffffffffffffffffffffffffffffff1673ffffffffffffffffffffffffffffffffffffffff1681526020016001820180546105da90610d58565b80601f016020809104026020016040519081016040528092919081815260200182805461060690610d58565b80156106535780601f1061062857610100808354040283529160200191610653565b820191906000526020600020905b81548152906001019060200180831161063657829003601f168201915b505050505081526020016002820154815260200160038201548152602001600482015481526020016005820160009054906101000a900460ff16600281111561069f5761069e610e33565b5b60028111156106b1576106b0610e33565b5b815250509050919050565b8280546106c890610d58565b90600052602060002090601f0160209004810192826106ea5760008555610731565b82601f1061070357805160ff1916838001178555610731565b82800160010185558215610731579182015b82811115610730578251825591602001919060010190610715565b5b50905061073e91906107a0565b5090565b6040518060c00160405280600073ffffffffffffffffffffffffffffffffffffffff168152602001606081526020016000815260200160008152602001600081526020016000600281111561079a57610799610e33565b5b81525090565b5b808211156107b95760008160009055506001016107a1565b5090565b60006107d06107cb84610c1e565b610bf9565b9050828152602081018484840111156107ec576107eb610ef4565b5b6107f7848285610d16565b509392505050565b600082601f83011261081457610813610eef565b5b81356108248482602086016107bd565b91505092915050565b60008135905061083c81610f28565b92915050565b6000806040838503121561085957610858610efe565b5b600083013567ffffffffffffffff81111561087757610876610ef9565b5b610883858286016107ff565b92505060206108948582860161082d565b9150509250929050565b6000602082840312156108b4576108b3610efe565b5b60006108c28482850161082d565b91505092915050565b60006108d78383610a02565b905092915050565b6108e881610cb5565b82525050565b6108f781610cb5565b82525050565b600061090882610c5f565b6109128185610c82565b93508360208202850161092485610c4f565b8060005b85811015610960578484038952815161094185826108cb565b945061094c83610c75565b925060208a01995050600181019050610928565b50829750879550505050505092915050565b61097b81610d04565b82525050565b61098a81610d04565b82525050565b600061099b82610c6a565b6109a58185610c93565b93506109b5818560208601610d25565b6109be81610f03565b840191505092915050565b60006109d482610c6a565b6109de8185610ca4565b93506109ee818560208601610d25565b6109f781610f03565b840191505092915050565b600060c083016000830151610a1a60008601826108df565b5060208301518482036020860152610a328282610990565b9150506040830151610a476040860182610b14565b506060830151610a5a6060860182610b14565b506080830151610a6d6080860182610b14565b5060a0830151610a8060a0860182610972565b508091505092915050565b600060c083016000830151610aa360008601826108df565b5060208301518482036020860152610abb8282610990565b9150506040830151610ad06040860182610b14565b506060830151610ae36060860182610b14565b506080830151610af66080860182610b14565b5060a0830151610b0960a0860182610972565b508091505092915050565b610b1d81610cfa565b82525050565b610b2c81610cfa565b82525050565b600060c082019050610b4760008301896108ee565b8181036020830152610b5981886109c9565b9050610b686040830187610b23565b610b756060830186610b23565b610b826080830185610b23565b610b8f60a0830184610981565b979650505050505050565b60006020820190508181036000830152610bb481846108fd565b905092915050565b60006020820190508181036000830152610bd68184610a8b565b905092915050565b6000602082019050610bf36000830184610b23565b92915050565b6000610c03610c14565b9050610c0f8282610d8a565b919050565b6000604051905090565b600067ffffffffffffffff821115610c3957610c38610ec0565b5b610c4282610f03565b9050602081019050919050565b6000819050602082019050919050565b600081519050919050565b600081519050919050565b6000602082019050919050565b600082825260208201905092915050565b600082825260208201905092915050565b600082825260208201905092915050565b6000610cc082610cda565b9050919050565b6000819050610cd582610f14565b919050565b600073ffffffffffffffffffffffffffffffffffffffff82169050919050565b6000819050919050565b6000610d0f82610cc7565b9050919050565b82818337600083830152505050565b60005b83811015610d43578082015181840152602081019050610d28565b83811115610d52576000848401525b50505050565b60006002820490506001821680610d7057607f821691505b60208210811415610d8457610d83610e62565b5b50919050565b610d9382610f03565b810181811067ffffffffffffffff82111715610db257610db1610ec0565b5b80604052505050565b6000610dc682610cfa565b91507fffffffffffffffffffffffffffffffffffffffffffffffffffffffffffffffff821415610df957610df8610e04565b5b600182019050919050565b7f4e487b7100000000000000000000000000000000000000000000000000000000600052601160045260246000fd5b7f4e487b7100000000000000000000000000000000000000000000000000000000600052602160045260246000fd5b7f4e487b7100000000000000000000000000000000000000000000000000000000600052602260045260246000fd5b7f4e487b7100000000000000000000000000000000000000000000000000000000600052603260045260246000fd5b7f4e487b7100000000000000000000000000000000000000000000000000000000600052604160045260246000fd5b600080fd5b600080fd5b600080fd5b600080fd5b6000601f19601f8301169050919050565b60038110610f2557610f24610e33565b5b50565b610f3181610cfa565b8114610f3c57600080fd5b5056fea2646970667358221220f1af8f8468ad1f8e44ec2ba12007733c3361331f6be50b7aca66b31e57b7609e64736f6c63430008060033",
  "immutableReferences": {},
  "source": "pragma solidity ^0.8.6;\r\n\r\ncontract CrowdFunding {\r\n\r\n    enum Status{\r\n        InProgress,\r\n        Successful,\r\n        Failed\r\n    }\r\n\r\n    struct Project{\r\n        address ProjectOwner;\r\n        string projectName;\r\n\r\n        uint totalRaised;\r\n        uint currentBalance;\r\n        uint deadline;\r\n        Status status;\r\n    }\r\n\r\n    Project[] public projects;\r\n    uint numProjects;\r\n\r\n    constructor() {\r\n        numProjects = 0;\r\n    }\r\n\r\n    function startProject(string memory name, uint deadline) public payable{\r\n        Project memory _project = Project(msg.sender, name, 0, 0, deadline, Status.InProgress);\r\n        projects.push(_project);\r\n        numProjects++;\r\n    }\r\n\r\n    function getAllProjects() external view returns(Project[] memory){\r\n        return projects;\r\n    }\r\n\r\n    function getNumProjects() public view returns(uint numProjects){\r\n        return numProjects;\r\n    }\r\n\r\n    function getProject(uint ProjectID) external view returns(Project memory){\r\n        return projects[ProjectID];\r\n    }\r\n}",
  "sourcePath": "C:/Users/cmcna/Desktop/Folder For Everything/Programming/solidity/crowdfunding/contracts/CrowdFunding.sol",
  "compiler": {
    "name": "solc",
    "version": "0.8.6+commit.11564f7e.Emscripten.clang"
  },
  "schemaVersion": "3.3.4",
  "updatedAt": "2021-07-23T11:04:14.014Z",
  "networkType": "ethereum",
  "devdoc": {
    "kind": "dev",
    "methods": {},
    "version": 1
  },
  "userdoc": {
    "kind": "user",
    "methods": {},
    "version": 1
  }
}